{
  "_format": "hh-sol-artifact-1",
  "contractName": "wallet",
  "sourceName": "contracts/WalletContract.sol",
  "abi": [
    {
      "inputs": [],
      "stateMutability": "nonpayable",
      "type": "constructor"
    },
    {
      "inputs": [],
      "name": "Balance",
      "outputs": [
        {
          "internalType": "uint256",
          "name": "",
          "type": "uint256"
        }
      ],
      "stateMutability": "view",
      "type": "function"
    },
    {
      "inputs": [
        {
          "internalType": "address",
          "name": "",
          "type": "address"
        }
      ],
      "name": "accountBalance",
      "outputs": [
        {
          "internalType": "uint256",
          "name": "",
          "type": "uint256"
        }
      ],
      "stateMutability": "view",
      "type": "function"
    },
    {
      "inputs": [],
      "name": "deposit",
      "outputs": [],
      "stateMutability": "payable",
      "type": "function"
    },
    {
      "inputs": [],
      "name": "getBalance",
      "outputs": [
        {
          "internalType": "uint256",
          "name": "",
          "type": "uint256"
        }
      ],
      "stateMutability": "view",
      "type": "function"
    },
    {
      "inputs": [],
      "name": "owner",
      "outputs": [
        {
          "internalType": "address",
          "name": "",
          "type": "address"
        }
      ],
      "stateMutability": "view",
      "type": "function"
    },
    {
      "inputs": [
        {
          "internalType": "address payable",
          "name": "receivingAddress",
          "type": "address"
        },
        {
          "internalType": "uint256",
          "name": "amount",
          "type": "uint256"
        }
      ],
      "name": "transfer",
      "outputs": [],
      "stateMutability": "payable",
      "type": "function"
    }
  ],
  "bytecode": "0x608060405234801561001057600080fd5b50336000806101000a81548173ffffffffffffffffffffffffffffffffffffffff021916908373ffffffffffffffffffffffffffffffffffffffff160217905550610713806100606000396000f3fe6080604052600436106100555760003560e01c80630ef678871461005a57806312065fe0146100855780638da5cb5b146100b0578063a9059cbb146100db578063d0e30db0146100f7578063d294cb0f14610101575b600080fd5b34801561006657600080fd5b5061006f61013e565b60405161007c91906103a4565b60405180910390f35b34801561009157600080fd5b5061009a610185565b6040516100a791906103a4565b60405180910390f35b3480156100bc57600080fd5b506100c561021c565b6040516100d29190610400565b60405180910390f35b6100f560048036038101906100f0919061048a565b610240565b005b6100ff61030d565b005b34801561010d57600080fd5b50610128600480360381019061012391906104f6565b610373565b60405161013591906103a4565b60405180910390f35b6000600160003373ffffffffffffffffffffffffffffffffffffffff1673ffffffffffffffffffffffffffffffffffffffff16815260200190815260200160002054905090565b60008060009054906101000a900473ffffffffffffffffffffffffffffffffffffffff1673ffffffffffffffffffffffffffffffffffffffff163373ffffffffffffffffffffffffffffffffffffffff1614610216576040517f08c379a000000000000000000000000000000000000000000000000000000000815260040161020d906105a6565b60405180910390fd5b47905090565b60008054906101000a900473ffffffffffffffffffffffffffffffffffffffff1681565b600160003373ffffffffffffffffffffffffffffffffffffffff1673ffffffffffffffffffffffffffffffffffffffff168152602001908152602001600020548111156102c2576040517f08c379a00000000000000000000000000000000000000000000000000000000081526004016102b990610638565b60405180910390fd5b8173ffffffffffffffffffffffffffffffffffffffff166108fc829081150290604051600060405180830381858888f19350505050158015610308573d6000803e3d6000fd5b505050565b600034141561031b57600080fd5b34600160003373ffffffffffffffffffffffffffffffffffffffff1673ffffffffffffffffffffffffffffffffffffffff168152602001908152602001600020600082825461036a9190610687565b92505081905550565b60016020528060005260406000206000915090505481565b6000819050919050565b61039e8161038b565b82525050565b60006020820190506103b96000830184610395565b92915050565b600073ffffffffffffffffffffffffffffffffffffffff82169050919050565b60006103ea826103bf565b9050919050565b6103fa816103df565b82525050565b600060208201905061041560008301846103f1565b92915050565b600080fd5b600061042b826103bf565b9050919050565b61043b81610420565b811461044657600080fd5b50565b60008135905061045881610432565b92915050565b6104678161038b565b811461047257600080fd5b50565b6000813590506104848161045e565b92915050565b600080604083850312156104a1576104a061041b565b5b60006104af85828601610449565b92505060206104c085828601610475565b9150509250929050565b6104d3816103df565b81146104de57600080fd5b50565b6000813590506104f0816104ca565b92915050565b60006020828403121561050c5761050b61041b565b5b600061051a848285016104e1565b91505092915050565b600082825260208201905092915050565b7f596f75206d757374206265206163636f756e742773206f776e657220746f207360008201527f6565207468652062616c616e6365000000000000000000000000000000000000602082015250565b6000610590602e83610523565b915061059b82610534565b604082019050919050565b600060208201905081810360008301526105bf81610583565b9050919050565b7f596f7520646f206e6f7420686176652073756666696369656e742062616c616e60008201527f636520746f207472616e66657200000000000000000000000000000000000000602082015250565b6000610622602d83610523565b915061062d826105c6565b604082019050919050565b6000602082019050818103600083015261065181610615565b9050919050565b7f4e487b7100000000000000000000000000000000000000000000000000000000600052601160045260246000fd5b60006106928261038b565b915061069d8361038b565b9250827fffffffffffffffffffffffffffffffffffffffffffffffffffffffffffffffff038211156106d2576106d1610658565b5b82820190509291505056fea26469706673582212202d8e466631ddaa1e158a022429c5f5b2e69373e2e259d7234d0602fc7600cc1d64736f6c634300080a0033",
  "linkReferences": {},
  "deployedLinkReferences": {}
}